S011000070696E6720706F6E672E7372656391
S11300000C942A000C9434000C9434000C943400A6
S11300100C9434000C9434000C9434000C9434008C
S11300200C9434000C9434000C9434000C9434007C
S11300300C9434000C9434000C9434000C9434006C
S11300400C9434000C9434000C9434000C9434005C
S11300500C94340011241FBECFE5D8E0DEBFCDBF21
S11300600E9422010C948D020C940000843008F04C
S113007072C0683008F06FC04130A1F5813089F05A
S113008028F08230C9F0833011F108952BB381E058
S113009090E002C0880F991F6A95E2F7822B8BBB10
S11300A0089528B381E090E002C0880F991F6A95F3
S11300B0E2F7822B88BB089525B381E090E002C06B
S11300C0880F991F6A95E2F7822B85BB089522B3A6
S11300D081E090E002C0880F991F6A95E2F7822BB5
S11300E082BB0895411137C0813091F028F08230ED
S11300F0D9F0833029F108952BB381E090E002C058
S1130100880F991F6A95E2F7809582238BBB089527
S113011028B381E090E002C0880F991F6A95E2F746
S11301208095822388BB089525B381E090E002C0C6
S1130130880F991F6A95E2F78095822385BB0895FD
S113014022B381E090E002C0880F991F6A95E2F71C
S11301508095822382BB0895843008F072C0683091
S113016008F06FC04130A1F5813089F028F0823069
S1130170C9F0833011F108952AB381E090E002C000
S1130180880F991F6A95E2F7822B8ABB089527B3DB
S113019081E090E002C0880F991F6A95E2F7822BF4
S11301A087BB089524B381E090E002C0880F991FB3
S11301B06A95E2F7822B84BB089521B381E090E035
S11301C002C0880F991F6A95E2F7822B81BB0895BC
S11301D0411137C0813091F028F08230D9F083305A
S11301E029F108952AB381E090E002C0880F991F95
S11301F06A95E2F7809582238ABB089527B381E04C
S113020090E002C0880F991F6A95E2F780958223D7
S113021087BB089524B381E090E002C0880F991F42
S11302206A95E2F78095822384BB089521B381E027
S113023090E002C0880F991F6A95E2F780958223A7
S113024081BB089541E060E082E00E94AC0041E09F
S113025061E082E00E94AC0041E062E082E00E9442
S1130260AC0041E063E082E00E94AC0041E064E065
S113027082E00E94AC0041E065E082E00E94AC00B4
S113028041E066E082E00E94AC0041E067E082E089
S11302900E94AC0041E060E082E00E9436002FE959
S11302A086E891E0215080409040E1F700C00000D2
S11302B040E060E082E00E94360041E061E082E0DC
S11302C00E9436002FE986E891E02150804090405A
S11302D0E1F700C0000040E061E082E00E943600E7
S11302E041E062E082E00E9436002FE986E891E076
S11302F0215080409040E1F700C0000040E062E0FF
S113030082E00E94360041E063E082E00E94360011
S11303102FE986E891E0215080409040E1F700C049
S1130320000040E063E082E00E94360041E064E0C7
S113033082E00E9436002FE986E891E02150804057
S11303409040E1F700C0000040E064E082E00E94D9
S1130350360041E065E082E00E9436002FE986E83D
S113036091E0215080409040E1F700C0000040E05F
S113037065E082E00E94360041E066E082E00E948F
S113038036002FE986E891E0215080409040E1F763
S113039000C0000040E066E082E00E94360041E0D8
S11303A067E082E00E9436002FE986E891E0215060
S11303B080409040E1F700C0000040E067E082E048
S11303C00E9436002FE986E891E021508040904059
S11303D0E1F700C0000041E067E082E00E943600DF
S11303E02FE986E891E0215080409040E1F700C079
S11303F0000040E067E082E00E94360041E066E0F1
S113040082E00E9436002FE986E891E02150804086
S11304109040E1F700C0000040E066E082E00E9406
S1130420360041E065E082E00E9436002FE986E86C
S113043091E0215080409040E1F700C0000040E08E
S113044065E082E00E94360041E064E082E00E94C0
S113045036002FE986E891E0215080409040E1F792
S113046000C0000040E064E082E00E94360041E009
S113047063E082E00E9436002FE986E891E0215093
S113048080409040E1F700C0000040E063E082E07B
S11304900E94360041E062E082E00E9436002FE9CB
S11304A086E891E0215080409040E1F700C00000D0
S11304B040E062E082E00E94360041E061E082E0D8
S11304C00E9436002FE986E891E021508040904058
S11304D0E1F700C0000040E061E082E00E943600E5
S11304E041E060E082E00E9436002FE986E891E076
S11304F0215080409040E1F700C0000040E060E0FF
S113050082E00E9436002FE986E891E02150804085
S11105109040E1F700C00000BDCEF894FFCF8C
S9030000FC
