S01800004763634170706C69636174696F6E32302E7372656329
S11300000C942A000C9434000C9434000C943400A6
S11300100C9434000C9434000C9434000C9434008C
S11300200C9434000C9434000C9434000C9434007C
S11300300C9434000C9434000C9434000C9434006C
S11300400C9434000C9434000C9434000C9434005C
S11300500C94340011241FBECFE5D8E0DEBFCDBF21
S11300600E9436000C9454000C9400008FEF84BB63
S113007011BA15BA82BB80E0809907C0893009F4AF
S113008088E08F5F85BB809BFECF819907C081117B
S113009001C081E0815085BB819BFECF8299ECCF6A
S10F00A015BA829BFECFE7CFF894FFCF87
S9030000FC
