S01400004156525F53656374696F6E732E7372656380
S11300000C942A000C943F000C943F000C943F0085
S11300100C943F000C943F000C943F000C943F0060
S11300200C943F000C943F000C943F000C943F0050
S11300300C943F000C943F000C943F000C943F0040
S11300400C943F000C943F000C943F000C943F0030
S11300500C943F0011241FBECFE5D8E0DEBFCDBF16
S113006010E0A0E6B0E0E0EBF4E002C005900D92F1
S1130070A83AB107D9F70E9420010C9456020C94B7
S11300800000CF93C82F40E067E082E00E944A015D
S113009040E066E082E00E944A0141E065E082E0DF
S11300A00E944A016C2F83E00E94460283EC99E08F
S11300B00197F1F700C0000040E065E082E00E9493
S11300C04A0181EE94E00197F1F700C00000CF915E
S11300D008958BE49DE10197F1F700C0000082E0F0
S11300E00E94410085EA9EE00197F1F700C00000FC
S11300F088E30E94410089EF90E00197F1F700C086
S113010000008CE00E94410089EF90E00197F1F734
S113011000C0000081E00E94410089EF90E0019757
S1130120F1F700C0000086E00E94410083EF91E0F7
S11301300197F1F700C000000895CF93C82F41E064
S113014067E082E00E944A0140E066E082E00E94AB
S11301504A016C2F83E00E94460241E065E082E0A0
S11301600E944A0183EC99E00197F1F700C0000076
S113017040E065E082E00E944A01CF9108950F9328
S11301801F93CF93FC018081882389F08F01C0E005
S1130190CF5F0E949D0083EF91E00197F1F700C0CB
S11301A00000F801EC0FF11D80818111F1CFCF9196
S11301B01F910F910895603170F4882319F08130F4
S11301C031F0089580E8860F0E944100089580EC84
S11301D0860F0E944100089581E00E944100089525
S11301E0EF92FF920F931F93CF93DF93F82EE62E97
S11301F080E40E944100C0E6D0E000EA10E089916A
S11302000E949D000C171D07D1F780E80E94410051
S11302106E2D8F2D0E94DB00C0E08C2F0E949D006C
S113022081EE94E00197F1F700C00000CF5FC83081
S1130230A1F7DF91CF911F910F91FF90EF90089557
S113024041E067E082E00E94C00141E066E082E0B4
S11302500E94C00141E065E082E00E94C0016FEFAE
S113026083E00E9436020E9469000E94EC0060E074
S113027080E00E94DB0080EA90E00E94BF0060E022
S113028081E00E94F00083EC99E00197F1F700C04F
S11302900000F1CF843008F072C0683008F06FC0FD
S11302A04130A1F5813089F028F08230C9F08330E3
S11302B011F108952BB381E090E002C0880F991FDB
S11302C06A95E2F7822B8BBB089528B381E090E016
S11302D002C0880F991F6A95E2F7822B88BB0895A4
S11302E025B381E090E002C0880F991F6A95E2F778
S11302F0822B85BB089522B381E090E002C0880F71
S1130300991F6A95E2F7822B82BB0895411137C089
S1130310813091F028F08230D9F0833029F10895AA
S11303202BB381E090E002C0880F991F6A95E2F731
S1130330809582238BBB089528B381E090E002C0AE
S1130340880F991F6A95E2F78095822388BB0895E8
S113035025B381E090E002C0880F991F6A95E2F707
S11303608095822385BB089522B381E090E002C08A
S1130370880F991F6A95E2F78095822382BB0895BE
S1130380843008F072C0683008F06FC04130A1F5C5
S1130390813089F028F08230C9F0833011F108955A
S11303A02AB381E090E002C0880F991F6A95E2F7B2
S11303B0822B8ABB089527B381E090E002C0880FA6
S11303C0991F6A95E2F7822B87BB089524B381E0D5
S11303D090E002C0880F991F6A95E2F7822B84BBD4
S11303E0089521B381E090E002C0880F991F6A95B7
S11303F0E2F7822B81BB0895411137C0813091F01F
S113040028F08230D9F0833029F108952AB381E0AD
S113041090E002C0880F991F6A95E2F780958223C5
S11304208ABB089527B381E090E002C0880F991F2A
S11304306A95E2F78095822387BB089524B381E00F
S113044090E002C0880F991F6A95E2F78095822395
S113045084BB089521B381E090E002C0880F991F06
S11304606A95E2F78095822381BB0895813041F03B
S113047028F0823039F0833039F008956ABB08954A
S113048067BB089564BB089561BB0895813041F052
S113049028F0823039F0833039F008956BBB089529
S11304A068BB089565BB089562BB0895F894FFCFB7
S11304B0101010121F000400000C12011F00000095
S11304C000000202030408100000060919060000D7
S11304D00000000000000000000000000000000018
S11304E00000000000000000000000000000000008
S10B04F057656C636F6D650034
S9030000FC
