S0210000496E74657275707420616E642050554C4C5F55505F446F776E2E73726563FD
S11300000C942A000C9463000C948F000C94B5009B
S11300100C943F000C943F000C943F000C943F0060
S11300200C943F000C943F000C943F000C943F0050
S11300300C943F000C943F000C943F000C943F0040
S11300400C943F000C943F000C943F000C943F0030
S11300500C943F0011241FBECFE5D8E0DEBFCDBF16
S113006010E0A0E6B0E0EAEFF1E002C005900D92E6
S1130070A236B107D9F70E9441000C94FB000C94FE
S113008000006FEF80E00E94DB0060E080E00E94EF
S1130090EB008BB780628BBF8BB780648BBF8BB751
S11300A080688BBF85B7816085BF85B78D7F85BF2D
S11300B085B7846085BF85B7886085BF84B7806451
S11300C084BF7894FFCF1F920F920FB60F92112422
S11300D02F933F934F935F936F937F938F939F934C
S11300E0AF93BF93EF93FF936091600080E00E9411
S11300F0EB0080916000809580936000FF91EF9108
S1130100BF91AF919F918F917F916F915F914F912B
S11301103F912F910F900FBE0F901F9018951F9233
S11301200F920FB60F9211242F933F934F935F9327
S11301306F937F938F939F93AF93BF93EF93FF93AB
S113014060E080E00E94EB00FF91EF91BF91AF91DE
S11301509F918F917F916F915F914F913F912F91DB
S11301600F900FBE0F901F9018951F920F920FB60D
S11301700F9211242F933F934F935F936F937F9329
S11301808F939F93AF93BF93EF93FF936FE080E0C0
S11301900E94EB00FF91EF91BF91AF919F918F91DE
S11301A07F916F915F914F913F912F910F900FBE6F
S11301B00F901F901895813041F028F0823039F06B
S11301C0833039F008956ABB089567BB089564BB12
S11301D0089561BB0895813041F028F0823039F0F0
S11301E0833039F008956BBB089568BB089565BBEF
S10D01F0089562BB0895F894FFCF50
S10501FAFF0000
S9030000FC
