S01400004156525F53656374696F6E732E7372656380
S11300000C942A000C9434000C9434000C943400A6
S11300100C9434000C9434000C9434000C9434008C
S11300200C9434000C9434000C9434000C9434007C
S11300300C9434000C9434000C9434000C9434006C
S11300400C9434000C9434000C9434000C9434005C
S11300500C94340011241FBECFE5D8E0DEBFCDBF21
S11300600E9436000C945C020C94000041E060E0B5
S113007082E00E94E60141E061E082E00E94E60144
S113008041E062E082E00E94E60141E063E082E058
S11300900E94E60141E064E082E00E94E60141E062
S11300A065E082E00E94E60141E066E082E00E94B1
S11300B0E60141E067E082E00E94E60141E060E0A1
S11300C082E00E9470012FE38DE093E02150804094
S11300D09040E1F700C0000041E061E082E00E944E
S11300E070012FE78AE196E0215080409040E1F7CB
S11300F000C0000041E062E082E00E9470012FEB4A
S113010087E299E0215080409040E1F700C0000070
S113011041E063E082E00E9470012FEF84E39CE001
S1130120215080409040E1F700C0000041E064E0CD
S113013082E00E9470012FE382E49FE0215080401E
S11301409040E1F700C0000041E065E082E00E94D9
S113015070012FE78FE492E1215080409040E1F755
S113016000C0000041E066E082E00E9470012FEBD5
S11301708CE595E1215080409040E1F700C00000FB
S113018041E067E082E00E9470012FEF89E698E188
S1130190215080409040E1F700C0000040E060E062
S11301A082E00E94700140E061E082E00E94700100
S11301B040E062E082E00E94700140E063E082E09F
S11301C00E94700140E064E082E00E94700140E01F
S11301D065E082E00E94700140E066E082E00E94F7
S11301E0700140E067E082E00E9470012FEB87E23B
S11301F099E0215080409040E1F700C0000041E0C8
S113020060E082E00E9470012FE38DE093E02150D2
S113021080409040E1F700C0000041E061E082E0EE
S11302200E9470012FE78AE196E0215080409040BF
S1130230E1F700C0000041E062E082E00E9470014A
S11302402FEB87E299E0215080409040E1F700C015
S1130250000041E063E082E00E9470012FEF84E33C
S11302609CE0215080409040E1F700C0000041E054
S113027064E082E00E9470012FE382E49FE0215059
S113028080409040E1F700C0000041E065E082E07A
S11302900E9470012FE78FE492E12150804090404A
S11302A0E1F700C0000041E066E082E00E947001D6
S11302B02FEB8CE595E1215080409040E1F700C0A0
S11302C0000041E067E082E00E9470012FEF89E6C0
S11302D098E1215080409040E1F700C00000EECE4C
S11302E0843008F072C0683008F06FC04130A1F566
S11302F0813089F028F08230C9F0833011F10895FB
S11303002BB381E090E002C0880F991F6A95E2F751
S1130310822B8BBB089528B381E090E002C0880F44
S1130320991F6A95E2F7822B88BB089525B381E073
S113033090E002C0880F991F6A95E2F7822B85BB73
S1130340089522B381E090E002C0880F991F6A9556
S1130350E2F7822B82BB0895411137C0813091F0BE
S113036028F08230D9F0833029F108952BB381E04D
S113037090E002C0880F991F6A95E2F78095822366
S11303808BBB089528B381E090E002C0880F991FC9
S11303906A95E2F78095822388BB089525B381E0AE
S11303A090E002C0880F991F6A95E2F78095822336
S11303B085BB089522B381E090E002C0880F991FA5
S11303C06A95E2F78095822382BB0895843008F011
S11303D072C0683008F06FC04130A1F5813089F0F7
S11303E028F08230C9F0833011F108952AB381E0F6
S11303F090E002C0880F991F6A95E2F7822B8ABBAE
S1130400089527B381E090E002C0880F991F6A9590
S1130410E2F7822B87BB089524B381E090E002C009
S1130420880F991F6A95E2F7822B84BB089521B344
S113043081E090E002C0880F991F6A95E2F7822B51
S113044081BB0895411137C0813091F028F082308A
S1130450D9F0833029F108952AB381E090E002C0F5
S1130460880F991F6A95E2F7809582238ABB0895C5
S113047027B381E090E002C0880F991F6A95E2F7E4
S11304808095822387BB089524B381E090E002C065
S1130490880F991F6A95E2F78095822384BB08959B
S11304A021B381E090E002C0880F991F6A95E2F7BA
S10F04B08095822381BB0895F894FFCF4F
S9030000FC
